{
  "_format": "hh-sol-artifact-1",
  "contractName": "FMTVendor2",
  "sourceName": "contracts/FMTVendor2.sol",
  "abi": [
    {
      "inputs": [],
      "stateMutability": "nonpayable",
      "type": "constructor"
    },
    {
      "anonymous": false,
      "inputs": [
        {
          "indexed": false,
          "internalType": "address",
          "name": "buyer",
          "type": "address"
        },
        {
          "indexed": false,
          "internalType": "uint256",
          "name": "amountOfETH",
          "type": "uint256"
        },
        {
          "indexed": false,
          "internalType": "uint256",
          "name": "amountOfTokens",
          "type": "uint256"
        }
      ],
      "name": "BuyTokens",
      "type": "event"
    },
    {
      "anonymous": false,
      "inputs": [
        {
          "indexed": true,
          "internalType": "address",
          "name": "previousOwner",
          "type": "address"
        },
        {
          "indexed": true,
          "internalType": "address",
          "name": "newOwner",
          "type": "address"
        }
      ],
      "name": "OwnershipTransferred",
      "type": "event"
    },
    {
      "inputs": [],
      "name": "buyTokens",
      "outputs": [
        {
          "internalType": "uint256",
          "name": "tokenAmount",
          "type": "uint256"
        }
      ],
      "stateMutability": "payable",
      "type": "function"
    },
    {
      "inputs": [],
      "name": "flipSaleState",
      "outputs": [],
      "stateMutability": "nonpayable",
      "type": "function"
    },
    {
      "inputs": [],
      "name": "getBalance",
      "outputs": [
        {
          "internalType": "uint256",
          "name": "",
          "type": "uint256"
        }
      ],
      "stateMutability": "view",
      "type": "function"
    },
    {
      "inputs": [
        {
          "internalType": "uint256",
          "name": "amount",
          "type": "uint256"
        }
      ],
      "name": "getExchangeRateForAmount",
      "outputs": [
        {
          "internalType": "uint256",
          "name": "",
          "type": "uint256"
        }
      ],
      "stateMutability": "view",
      "type": "function"
    },
    {
      "inputs": [],
      "name": "getFMTBalance",
      "outputs": [
        {
          "internalType": "uint256",
          "name": "",
          "type": "uint256"
        }
      ],
      "stateMutability": "view",
      "type": "function"
    },
    {
      "inputs": [],
      "name": "isSaleActive",
      "outputs": [
        {
          "internalType": "bool",
          "name": "",
          "type": "bool"
        }
      ],
      "stateMutability": "view",
      "type": "function"
    },
    {
      "inputs": [],
      "name": "maticPerToken",
      "outputs": [
        {
          "internalType": "uint256",
          "name": "",
          "type": "uint256"
        }
      ],
      "stateMutability": "view",
      "type": "function"
    },
    {
      "inputs": [],
      "name": "owner",
      "outputs": [
        {
          "internalType": "address",
          "name": "",
          "type": "address"
        }
      ],
      "stateMutability": "view",
      "type": "function"
    },
    {
      "inputs": [],
      "name": "renounceOwnership",
      "outputs": [],
      "stateMutability": "nonpayable",
      "type": "function"
    },
    {
      "inputs": [
        {
          "internalType": "uint256",
          "name": "newPrice",
          "type": "uint256"
        }
      ],
      "name": "setMaticPerToken",
      "outputs": [],
      "stateMutability": "nonpayable",
      "type": "function"
    },
    {
      "inputs": [
        {
          "internalType": "address",
          "name": "newOwner",
          "type": "address"
        }
      ],
      "name": "transferOwnership",
      "outputs": [],
      "stateMutability": "nonpayable",
      "type": "function"
    },
    {
      "inputs": [],
      "name": "withdrawMoney",
      "outputs": [],
      "stateMutability": "nonpayable",
      "type": "function"
    }
  ],
  "bytecode": "0x6080604052731d9056048271d1a6e305c81b7f8cc0b8367e1792600160006101000a81548173ffffffffffffffffffffffffffffffffffffffff021916908373ffffffffffffffffffffffffffffffffffffffff16021790555060016002557320ff057fc99f7d445970922c0635aaa5710c2ab2600360006101000a81548173ffffffffffffffffffffffffffffffffffffffff021916908373ffffffffffffffffffffffffffffffffffffffff160217905550600360009054906101000a900473ffffffffffffffffffffffffffffffffffffffff16600460006101000a81548173ffffffffffffffffffffffffffffffffffffffff021916908373ffffffffffffffffffffffffffffffffffffffff1602179055506001600460146101000a81548160ff02191690831515021790555034801561013d57600080fd5b5061015a61014f61015f60201b60201c565b61016760201b60201c565b61022b565b600033905090565b60008060009054906101000a900473ffffffffffffffffffffffffffffffffffffffff169050816000806101000a81548173ffffffffffffffffffffffffffffffffffffffff021916908373ffffffffffffffffffffffffffffffffffffffff1602179055508173ffffffffffffffffffffffffffffffffffffffff168173ffffffffffffffffffffffffffffffffffffffff167f8be0079c531659141344cd1fd0a4f28419497f9722a3daafe3b4186f6b6457e060405160405180910390a35050565b610ed88061023a6000396000f3fe6080604052600436106100a75760003560e01c8063ab691ed311610064578063ab691ed314610184578063ac446002146101af578063c4dd4434146101c6578063d0febe4c14610203578063d50a083014610221578063f2fde38b1461024c576100a7565b806312065fe0146100ac5780632649b031146100d757806334918dfd14610100578063564566a814610117578063715018a6146101425780638da5cb5b14610159575b600080fd5b3480156100b857600080fd5b506100c1610275565b6040516100ce9190610d89565b60405180910390f35b3480156100e357600080fd5b506100fe60048036038101906100f99190610a7f565b61027d565b005b34801561010c57600080fd5b50610115610303565b005b34801561012357600080fd5b5061012c6103ab565b6040516101399190610cce565b60405180910390f35b34801561014e57600080fd5b506101576103be565b005b34801561016557600080fd5b5061016e610446565b60405161017b9190610c8a565b60405180910390f35b34801561019057600080fd5b5061019961046f565b6040516101a69190610d89565b60405180910390f35b3480156101bb57600080fd5b506101c4610475565b005b3480156101d257600080fd5b506101ed60048036038101906101e89190610a7f565b610547565b6040516101fa9190610d89565b60405180910390f35b61020b61055e565b6040516102189190610d89565b60405180910390f35b34801561022d57600080fd5b5061023661074d565b6040516102439190610d89565b60405180910390f35b34801561025857600080fd5b50610273600480360381019061026e9190610a2d565b6107ff565b005b600047905090565b6102856108f7565b73ffffffffffffffffffffffffffffffffffffffff166102a3610446565b73ffffffffffffffffffffffffffffffffffffffff16146102f9576040517f08c379a00000000000000000000000000000000000000000000000000000000081526004016102f090610d49565b60405180910390fd5b8060028190555050565b61030b6108f7565b73ffffffffffffffffffffffffffffffffffffffff16610329610446565b73ffffffffffffffffffffffffffffffffffffffff161461037f576040517f08c379a000000000000000000000000000000000000000000000000000000000815260040161037690610d49565b60405180910390fd5b600460149054906101000a900460ff1615600460146101000a81548160ff021916908315150217905550565b600460149054906101000a900460ff1681565b6103c66108f7565b73ffffffffffffffffffffffffffffffffffffffff166103e4610446565b73ffffffffffffffffffffffffffffffffffffffff161461043a576040517f08c379a000000000000000000000000000000000000000000000000000000000815260040161043190610d49565b60405180910390fd5b61044460006108ff565b565b60008060009054906101000a900473ffffffffffffffffffffffffffffffffffffffff16905090565b60025481565b61047d6108f7565b73ffffffffffffffffffffffffffffffffffffffff1661049b610446565b73ffffffffffffffffffffffffffffffffffffffff16146104f1576040517f08c379a00000000000000000000000000000000000000000000000000000000081526004016104e890610d49565b60405180910390fd5b60003390508073ffffffffffffffffffffffffffffffffffffffff166108fc610518610275565b9081150290604051600060405180830381858888f19350505050158015610543573d6000803e3d6000fd5b5050565b6000600254826105579190610db5565b9050919050565b6000600460149054906101000a900460ff166105af576040517f08c379a00000000000000000000000000000000000000000000000000000000081526004016105a690610d69565b60405180910390fd5b600034116105f2576040517f08c379a00000000000000000000000000000000000000000000000000000000081526004016105e990610d09565b60405180910390fd5b6000610600346002546109c3565b9050600061060c61074d565b905081811015610651576040517f08c379a000000000000000000000000000000000000000000000000000000000815260040161064890610d29565b60405180910390fd5b6000600160009054906101000a900473ffffffffffffffffffffffffffffffffffffffff1673ffffffffffffffffffffffffffffffffffffffff1663a9059cbb33856040518363ffffffff1660e01b81526004016106b0929190610ca5565b602060405180830381600087803b1580156106ca57600080fd5b505af11580156106de573d6000803e3d6000fd5b505050506040513d601f19601f820116820180604052508101906107029190610a56565b905080610744576040517f08c379a000000000000000000000000000000000000000000000000000000000815260040161073b90610d69565b60405180910390fd5b82935050505090565b6000600160009054906101000a900473ffffffffffffffffffffffffffffffffffffffff1673ffffffffffffffffffffffffffffffffffffffff166370a08231306040518263ffffffff1660e01b81526004016107aa9190610c8a565b60206040518083038186803b1580156107c257600080fd5b505afa1580156107d6573d6000803e3d6000fd5b505050506040513d601f19601f820116820180604052508101906107fa9190610aa8565b905090565b6108076108f7565b73ffffffffffffffffffffffffffffffffffffffff16610825610446565b73ffffffffffffffffffffffffffffffffffffffff161461087b576040517f08c379a000000000000000000000000000000000000000000000000000000000815260040161087290610d49565b60405180910390fd5b600073ffffffffffffffffffffffffffffffffffffffff168173ffffffffffffffffffffffffffffffffffffffff1614156108eb576040517f08c379a00000000000000000000000000000000000000000000000000000000081526004016108e290610ce9565b60405180910390fd5b6108f4816108ff565b50565b600033905090565b60008060009054906101000a900473ffffffffffffffffffffffffffffffffffffffff169050816000806101000a81548173ffffffffffffffffffffffffffffffffffffffff021916908373ffffffffffffffffffffffffffffffffffffffff1602179055508173ffffffffffffffffffffffffffffffffffffffff168173ffffffffffffffffffffffffffffffffffffffff167f8be0079c531659141344cd1fd0a4f28419497f9722a3daafe3b4186f6b6457e060405160405180910390a35050565b600081836109d19190610db5565b905092915050565b6000813590506109e881610e5d565b92915050565b6000815190506109fd81610e74565b92915050565b600081359050610a1281610e8b565b92915050565b600081519050610a2781610e8b565b92915050565b600060208284031215610a3f57600080fd5b6000610a4d848285016109d9565b91505092915050565b600060208284031215610a6857600080fd5b6000610a76848285016109ee565b91505092915050565b600060208284031215610a9157600080fd5b6000610a9f84828501610a03565b91505092915050565b600060208284031215610aba57600080fd5b6000610ac884828501610a18565b91505092915050565b610ada81610de6565b82525050565b610ae981610df8565b82525050565b6000610afc602683610da4565b91507f4f776e61626c653a206e6577206f776e657220697320746865207a65726f206160008301527f64647265737300000000000000000000000000000000000000000000000000006020830152604082019050919050565b6000610b62601b83610da4565b91507f53656e642045544820746f2062757920736f6d6520746f6b656e7300000000006000830152602082019050919050565b6000610ba2603483610da4565b91507f56656e646f7220636f6e747261637420686173206e6f7420656e6f756768207460008301527f6f6b656e7320696e206974732062616c616e63650000000000000000000000006020830152604082019050919050565b6000610c08602083610da4565b91507f4f776e61626c653a2063616c6c6572206973206e6f7420746865206f776e65726000830152602082019050919050565b6000610c48602083610da4565b91507f4661696c656420746f207472616e7366657220746f6b656e20746f20757365726000830152602082019050919050565b610c8481610e24565b82525050565b6000602082019050610c9f6000830184610ad1565b92915050565b6000604082019050610cba6000830185610ad1565b610cc76020830184610c7b565b9392505050565b6000602082019050610ce36000830184610ae0565b92915050565b60006020820190508181036000830152610d0281610aef565b9050919050565b60006020820190508181036000830152610d2281610b55565b9050919050565b60006020820190508181036000830152610d4281610b95565b9050919050565b60006020820190508181036000830152610d6281610bfb565b9050919050565b60006020820190508181036000830152610d8281610c3b565b9050919050565b6000602082019050610d9e6000830184610c7b565b92915050565b600082825260208201905092915050565b6000610dc082610e24565b9150610dcb83610e24565b925082610ddb57610dda610e2e565b5b828204905092915050565b6000610df182610e04565b9050919050565b60008115159050919050565b600073ffffffffffffffffffffffffffffffffffffffff82169050919050565b6000819050919050565b7f4e487b7100000000000000000000000000000000000000000000000000000000600052601260045260246000fd5b610e6681610de6565b8114610e7157600080fd5b50565b610e7d81610df8565b8114610e8857600080fd5b50565b610e9481610e24565b8114610e9f57600080fd5b5056fea2646970667358221220f3e75f1023138aec28e7b4488c4b12d1e9382e6238850dac4084bdd59049d26964736f6c63430008000033",
  "linkReferences": {},
  "deployedLinkReferences": {}
}