{
  "_format": "hh-sol-artifact-1",
  "contractName": "FMTVendor",
  "sourceName": "contracts/FMTVendor.sol",
  "abi": [
    {
      "inputs": [],
      "stateMutability": "payable",
      "type": "constructor"
    },
    {
      "anonymous": false,
      "inputs": [
        {
          "indexed": false,
          "internalType": "address",
          "name": "buyer",
          "type": "address"
        },
        {
          "indexed": false,
          "internalType": "uint256",
          "name": "amountOfETH",
          "type": "uint256"
        },
        {
          "indexed": false,
          "internalType": "uint256",
          "name": "amountOfTokens",
          "type": "uint256"
        }
      ],
      "name": "BuyTokens",
      "type": "event"
    },
    {
      "anonymous": false,
      "inputs": [
        {
          "indexed": true,
          "internalType": "address",
          "name": "previousOwner",
          "type": "address"
        },
        {
          "indexed": true,
          "internalType": "address",
          "name": "newOwner",
          "type": "address"
        }
      ],
      "name": "OwnershipTransferred",
      "type": "event"
    },
    {
      "inputs": [],
      "name": "_token",
      "outputs": [
        {
          "internalType": "contract IERC20",
          "name": "",
          "type": "address"
        }
      ],
      "stateMutability": "view",
      "type": "function"
    },
    {
      "inputs": [],
      "name": "buyTokens",
      "outputs": [],
      "stateMutability": "payable",
      "type": "function"
    },
    {
      "inputs": [],
      "name": "flipSaleState",
      "outputs": [],
      "stateMutability": "nonpayable",
      "type": "function"
    },
    {
      "inputs": [],
      "name": "getFMTBalance",
      "outputs": [
        {
          "internalType": "uint256",
          "name": "",
          "type": "uint256"
        }
      ],
      "stateMutability": "view",
      "type": "function"
    },
    {
      "inputs": [],
      "name": "isSaleActive",
      "outputs": [
        {
          "internalType": "bool",
          "name": "",
          "type": "bool"
        }
      ],
      "stateMutability": "view",
      "type": "function"
    },
    {
      "inputs": [],
      "name": "owner",
      "outputs": [
        {
          "internalType": "address",
          "name": "",
          "type": "address"
        }
      ],
      "stateMutability": "view",
      "type": "function"
    },
    {
      "inputs": [],
      "name": "renounceOwnership",
      "outputs": [],
      "stateMutability": "nonpayable",
      "type": "function"
    },
    {
      "inputs": [
        {
          "internalType": "uint256",
          "name": "newPrice",
          "type": "uint256"
        }
      ],
      "name": "setFMTPrice",
      "outputs": [],
      "stateMutability": "nonpayable",
      "type": "function"
    },
    {
      "inputs": [],
      "name": "tokensPerEth",
      "outputs": [
        {
          "internalType": "uint256",
          "name": "",
          "type": "uint256"
        }
      ],
      "stateMutability": "view",
      "type": "function"
    },
    {
      "inputs": [
        {
          "internalType": "address",
          "name": "newOwner",
          "type": "address"
        }
      ],
      "name": "transferOwnership",
      "outputs": [],
      "stateMutability": "nonpayable",
      "type": "function"
    }
  ],
  "bytecode": "0x6080604052731d9056048271d1a6e305c81b7f8cc0b8367e1792600160006101000a81548173ffffffffffffffffffffffffffffffffffffffff021916908373ffffffffffffffffffffffffffffffffffffffff16021790555060006002557320ff057fc99f7d445970922c0635aaa5710c2ab2600360006101000a81548173ffffffffffffffffffffffffffffffffffffffff021916908373ffffffffffffffffffffffffffffffffffffffff160217905550600360009054906101000a900473ffffffffffffffffffffffffffffffffffffffff16600460006101000a81548173ffffffffffffffffffffffffffffffffffffffff021916908373ffffffffffffffffffffffffffffffffffffffff1602179055506000600460146101000a81548160ff02191690831515021790555061014d61014261015260201b60201c565b61015a60201b60201c565b61021e565b600033905090565b60008060009054906101000a900473ffffffffffffffffffffffffffffffffffffffff169050816000806101000a81548173ffffffffffffffffffffffffffffffffffffffff021916908373ffffffffffffffffffffffffffffffffffffffff1602179055508173ffffffffffffffffffffffffffffffffffffffff168173ffffffffffffffffffffffffffffffffffffffff167f8be0079c531659141344cd1fd0a4f28419497f9722a3daafe3b4186f6b6457e060405160405180910390a35050565b610f4c8061022d6000396000f3fe6080604052600436106100915760003560e01c8063cbdd69b511610059578063cbdd69b514610143578063d0febe4c1461016e578063d50a083014610178578063ecd0c0c3146101a3578063f2fde38b146101ce57610091565b806334918dfd14610096578063564566a8146100ad578063715018a6146100d85780638da5cb5b146100ef578063bff1279e1461011a575b600080fd5b3480156100a257600080fd5b506100ab6101f7565b005b3480156100b957600080fd5b506100c261029f565b6040516100cf9190610cba565b60405180910390f35b3480156100e457600080fd5b506100ed6102b2565b005b3480156100fb57600080fd5b5061010461033a565b6040516101119190610c76565b60405180910390f35b34801561012657600080fd5b50610141600480360381019061013c9190610a1c565b610363565b005b34801561014f57600080fd5b506101586103e9565b6040516101659190610db0565b60405180910390f35b6101766103ef565b005b34801561018457600080fd5b5061018d6106e8565b60405161019a9190610db0565b60405180910390f35b3480156101af57600080fd5b506101b861078c565b6040516101c59190610cd5565b60405180910390f35b3480156101da57600080fd5b506101f560048036038101906101f091906109ca565b6107b2565b005b6101ff6108aa565b73ffffffffffffffffffffffffffffffffffffffff1661021d61033a565b73ffffffffffffffffffffffffffffffffffffffff1614610273576040517f08c379a000000000000000000000000000000000000000000000000000000000815260040161026a90610d50565b60405180910390fd5b600460149054906101000a900460ff1615600460146101000a81548160ff021916908315150217905550565b600460149054906101000a900460ff1681565b6102ba6108aa565b73ffffffffffffffffffffffffffffffffffffffff166102d861033a565b73ffffffffffffffffffffffffffffffffffffffff161461032e576040517f08c379a000000000000000000000000000000000000000000000000000000000815260040161032590610d50565b60405180910390fd5b61033860006108b2565b565b60008060009054906101000a900473ffffffffffffffffffffffffffffffffffffffff16905090565b61036b6108aa565b73ffffffffffffffffffffffffffffffffffffffff1661038961033a565b73ffffffffffffffffffffffffffffffffffffffff16146103df576040517f08c379a00000000000000000000000000000000000000000000000000000000081526004016103d690610d50565b60405180910390fd5b8060028190555050565b60025481565b60003411610432576040517f08c379a000000000000000000000000000000000000000000000000000000000815260040161042990610d10565b60405180910390fd5b6000600254346104429190610ddc565b9050600460149054906101000a900460ff16610493576040517f08c379a000000000000000000000000000000000000000000000000000000000815260040161048a90610d70565b60405180910390fd5b6000600160009054906101000a900473ffffffffffffffffffffffffffffffffffffffff1673ffffffffffffffffffffffffffffffffffffffff1663a9059cbb33846040518363ffffffff1660e01b81526004016104f2929190610c91565b602060405180830381600087803b15801561050c57600080fd5b505af1158015610520573d6000803e3d6000fd5b505050506040513d601f19601f8201168201806040525081019061054491906109f3565b905080610586576040517f08c379a000000000000000000000000000000000000000000000000000000000815260040161057d90610d90565b60405180910390fd5b600460009054906101000a900473ffffffffffffffffffffffffffffffffffffffff1673ffffffffffffffffffffffffffffffffffffffff166108fc349081150290604051600060405180830381858888f193505050501580156105ee573d6000803e3d6000fd5b5060011515600160009054906101000a900473ffffffffffffffffffffffffffffffffffffffff1673ffffffffffffffffffffffffffffffffffffffff1663a9059cbb33856040518363ffffffff1660e01b8152600401610650929190610c91565b602060405180830381600087803b15801561066a57600080fd5b505af115801561067e573d6000803e3d6000fd5b505050506040513d601f19601f820116820180604052508101906106a291906109f3565b1515146106e4576040517f08c379a00000000000000000000000000000000000000000000000000000000081526004016106db90610d30565b60405180910390fd5b5050565b6000731d9056048271d1a6e305c81b7f8cc0b8367e179273ffffffffffffffffffffffffffffffffffffffff166370a08231306040518263ffffffff1660e01b81526004016107379190610c76565b60206040518083038186803b15801561074f57600080fd5b505afa158015610763573d6000803e3d6000fd5b505050506040513d601f19601f820116820180604052508101906107879190610a45565b905090565b600160009054906101000a900473ffffffffffffffffffffffffffffffffffffffff1681565b6107ba6108aa565b73ffffffffffffffffffffffffffffffffffffffff166107d861033a565b73ffffffffffffffffffffffffffffffffffffffff161461082e576040517f08c379a000000000000000000000000000000000000000000000000000000000815260040161082590610d50565b60405180910390fd5b600073ffffffffffffffffffffffffffffffffffffffff168173ffffffffffffffffffffffffffffffffffffffff16141561089e576040517f08c379a000000000000000000000000000000000000000000000000000000000815260040161089590610cf0565b60405180910390fd5b6108a7816108b2565b50565b600033905090565b60008060009054906101000a900473ffffffffffffffffffffffffffffffffffffffff169050816000806101000a81548173ffffffffffffffffffffffffffffffffffffffff021916908373ffffffffffffffffffffffffffffffffffffffff1602179055508173ffffffffffffffffffffffffffffffffffffffff168173ffffffffffffffffffffffffffffffffffffffff167f8be0079c531659141344cd1fd0a4f28419497f9722a3daafe3b4186f6b6457e060405160405180910390a35050565b60008135905061098581610ed1565b92915050565b60008151905061099a81610ee8565b92915050565b6000813590506109af81610eff565b92915050565b6000815190506109c481610eff565b92915050565b6000602082840312156109dc57600080fd5b60006109ea84828501610976565b91505092915050565b600060208284031215610a0557600080fd5b6000610a138482850161098b565b91505092915050565b600060208284031215610a2e57600080fd5b6000610a3c848285016109a0565b91505092915050565b600060208284031215610a5757600080fd5b6000610a65848285016109b5565b91505092915050565b610a7781610e36565b82525050565b610a8681610e48565b82525050565b610a9581610e7e565b82525050565b6000610aa8602683610dcb565b91507f4f776e61626c653a206e6577206f776e657220697320746865207a65726f206160008301527f64647265737300000000000000000000000000000000000000000000000000006020830152604082019050919050565b6000610b0e601b83610dcb565b91507f53656e642045544820746f2062757920736f6d6520746f6b656e7300000000006000830152602082019050919050565b6000610b4e602283610dcb565b91507f436f756c64206e6f742073656e6420746f6b656e7320746f207468652062757960008301527f65720000000000000000000000000000000000000000000000000000000000006020830152604082019050919050565b6000610bb4602083610dcb565b91507f4f776e61626c653a2063616c6c6572206973206e6f7420746865206f776e65726000830152602082019050919050565b6000610bf4601c83610dcb565b91507f53616c65206973206e6f742063757272656e746c7920616374697665000000006000830152602082019050919050565b6000610c34602083610dcb565b91507f4661696c656420746f207472616e7366657220746f6b656e20746f20757365726000830152602082019050919050565b610c7081610e74565b82525050565b6000602082019050610c8b6000830184610a6e565b92915050565b6000604082019050610ca66000830185610a6e565b610cb36020830184610c67565b9392505050565b6000602082019050610ccf6000830184610a7d565b92915050565b6000602082019050610cea6000830184610a8c565b92915050565b60006020820190508181036000830152610d0981610a9b565b9050919050565b60006020820190508181036000830152610d2981610b01565b9050919050565b60006020820190508181036000830152610d4981610b41565b9050919050565b60006020820190508181036000830152610d6981610ba7565b9050919050565b60006020820190508181036000830152610d8981610be7565b9050919050565b60006020820190508181036000830152610da981610c27565b9050919050565b6000602082019050610dc56000830184610c67565b92915050565b600082825260208201905092915050565b6000610de782610e74565b9150610df283610e74565b9250817fffffffffffffffffffffffffffffffffffffffffffffffffffffffffffffffff0483118215151615610e2b57610e2a610ea2565b5b828202905092915050565b6000610e4182610e54565b9050919050565b60008115159050919050565b600073ffffffffffffffffffffffffffffffffffffffff82169050919050565b6000819050919050565b6000610e8982610e90565b9050919050565b6000610e9b82610e54565b9050919050565b7f4e487b7100000000000000000000000000000000000000000000000000000000600052601160045260246000fd5b610eda81610e36565b8114610ee557600080fd5b50565b610ef181610e48565b8114610efc57600080fd5b50565b610f0881610e74565b8114610f1357600080fd5b5056fea2646970667358221220ea341bfa4cb85b8c842028fbd660d113e82154aee0db585b59a220e729eca40864736f6c63430008000033",
  "linkReferences": {},
  "deployedLinkReferences": {}
}